{
  "_format": "hh-sol-artifact-1",
  "contractName": "BuyCoffee",
  "sourceName": "contracts/BuyCoffee.sol",
  "abi": [
    {
      "inputs": [],
      "stateMutability": "nonpayable",
      "type": "constructor"
    },
    {
      "inputs": [
        {
          "internalType": "string",
          "name": "_name",
          "type": "string"
        },
        {
          "internalType": "string",
          "name": "_message",
          "type": "string"
        }
      ],
      "name": "buyCoffee",
      "outputs": [],
      "stateMutability": "payable",
      "type": "function"
    },
    {
      "inputs": [],
      "name": "getMemo",
      "outputs": [
        {
          "components": [
            {
              "internalType": "string",
              "name": "name",
              "type": "string"
            },
            {
              "internalType": "string",
              "name": "description",
              "type": "string"
            },
            {
              "internalType": "uint256",
              "name": "timestamp",
              "type": "uint256"
            },
            {
              "internalType": "address",
              "name": "from",
              "type": "address"
            }
          ],
          "internalType": "struct BuyCoffee.Memo[]",
          "name": "",
          "type": "tuple[]"
        }
      ],
      "stateMutability": "view",
      "type": "function"
    }
  ],
  "bytecode": "0x608060405234801561001057600080fd5b50336000806101000a81548173ffffffffffffffffffffffffffffffffffffffff021916908373ffffffffffffffffffffffffffffffffffffffff160217905550610b71806100606000396000f3fe6080604052600436106100295760003560e01c8063204206e11461002e5780638aa7b4b11461004a575b600080fd5b61004860048036038101906100439190610541565b610075565b005b34801561005657600080fd5b5061005f610204565b60405161006c91906107be565b60405180910390f35b600034116100b8576040517f08c379a00000000000000000000000000000000000000000000000000000000081526004016100af9061083d565b60405180910390fd5b60008054906101000a900473ffffffffffffffffffffffffffffffffffffffff1673ffffffffffffffffffffffffffffffffffffffff166108fc349081150290604051600060405180830381858888f1935050505015801561011e573d6000803e3d6000fd5b50600160405180608001604052808481526020018381526020014281526020013373ffffffffffffffffffffffffffffffffffffffff16815250908060018154018082558091505060019003906000526020600020906004020160009091909190915060008201518160000190816101969190610a69565b5060208201518160010190816101ac9190610a69565b506040820151816002015560608201518160030160006101000a81548173ffffffffffffffffffffffffffffffffffffffff021916908373ffffffffffffffffffffffffffffffffffffffff16021790555050505050565b60606001805480602002602001604051908101604052809291908181526020016000905b828210156103de578382906000526020600020906004020160405180608001604052908160008201805461025b9061088c565b80601f01602080910402602001604051908101604052809291908181526020018280546102879061088c565b80156102d45780601f106102a9576101008083540402835291602001916102d4565b820191906000526020600020905b8154815290600101906020018083116102b757829003601f168201915b505050505081526020016001820180546102ed9061088c565b80601f01602080910402602001604051908101604052809291908181526020018280546103199061088c565b80156103665780601f1061033b57610100808354040283529160200191610366565b820191906000526020600020905b81548152906001019060200180831161034957829003601f168201915b50505050508152602001600282015481526020016003820160009054906101000a900473ffffffffffffffffffffffffffffffffffffffff1673ffffffffffffffffffffffffffffffffffffffff1673ffffffffffffffffffffffffffffffffffffffff168152505081526020019060010190610228565b50505050905090565b6000604051905090565b600080fd5b600080fd5b600080fd5b600080fd5b6000601f19601f8301169050919050565b7f4e487b7100000000000000000000000000000000000000000000000000000000600052604160045260246000fd5b61044e82610405565b810181811067ffffffffffffffff8211171561046d5761046c610416565b5b80604052505050565b60006104806103e7565b905061048c8282610445565b919050565b600067ffffffffffffffff8211156104ac576104ab610416565b5b6104b582610405565b9050602081019050919050565b82818337600083830152505050565b60006104e46104df84610491565b610476565b905082815260208101848484011115610500576104ff610400565b5b61050b8482856104c2565b509392505050565b600082601f830112610528576105276103fb565b5b81356105388482602086016104d1565b91505092915050565b60008060408385031215610558576105576103f1565b5b600083013567ffffffffffffffff811115610576576105756103f6565b5b61058285828601610513565b925050602083013567ffffffffffffffff8111156105a3576105a26103f6565b5b6105af85828601610513565b9150509250929050565b600081519050919050565b600082825260208201905092915050565b6000819050602082019050919050565b600081519050919050565b600082825260208201905092915050565b60005b8381101561061f578082015181840152602081019050610604565b60008484015250505050565b6000610636826105e5565b61064081856105f0565b9350610650818560208601610601565b61065981610405565b840191505092915050565b6000819050919050565b61067781610664565b82525050565b600073ffffffffffffffffffffffffffffffffffffffff82169050919050565b60006106a88261067d565b9050919050565b6106b88161069d565b82525050565b600060808301600083015184820360008601526106db828261062b565b915050602083015184820360208601526106f5828261062b565b915050604083015161070a604086018261066e565b50606083015161071d60608601826106af565b508091505092915050565b600061073483836106be565b905092915050565b6000602082019050919050565b6000610754826105b9565b61075e81856105c4565b935083602082028501610770856105d5565b8060005b858110156107ac578484038952815161078d8582610728565b94506107988361073c565b925060208a01995050600181019050610774565b50829750879550505050505092915050565b600060208201905081810360008301526107d88184610749565b905092915050565b600082825260208201905092915050565b7f50726f76696465207472756520616d6f756e7400000000000000000000000000600082015250565b60006108276013836107e0565b9150610832826107f1565b602082019050919050565b600060208201905081810360008301526108568161081a565b9050919050565b7f4e487b7100000000000000000000000000000000000000000000000000000000600052602260045260246000fd5b600060028204905060018216806108a457607f821691505b6020821081036108b7576108b661085d565b5b50919050565b60008190508160005260206000209050919050565b60006020601f8301049050919050565b600082821b905092915050565b60006008830261091f7fffffffffffffffffffffffffffffffffffffffffffffffffffffffffffffffff826108e2565b61092986836108e2565b95508019841693508086168417925050509392505050565b6000819050919050565b600061096661096161095c84610664565b610941565b610664565b9050919050565b6000819050919050565b6109808361094b565b61099461098c8261096d565b8484546108ef565b825550505050565b600090565b6109a961099c565b6109b4818484610977565b505050565b5b818110156109d8576109cd6000826109a1565b6001810190506109ba565b5050565b601f821115610a1d576109ee816108bd565b6109f7846108d2565b81016020851015610a06578190505b610a1a610a12856108d2565b8301826109b9565b50505b505050565b600082821c905092915050565b6000610a4060001984600802610a22565b1980831691505092915050565b6000610a598383610a2f565b9150826002028217905092915050565b610a72826105e5565b67ffffffffffffffff811115610a8b57610a8a610416565b5b610a95825461088c565b610aa08282856109dc565b600060209050601f831160018114610ad35760008415610ac1578287015190505b610acb8582610a4d565b865550610b33565b601f198416610ae1866108bd565b60005b82811015610b0957848901518255600182019150602085019450602081019050610ae4565b86831015610b265784890151610b22601f891682610a2f565b8355505b6001600288020188555050505b50505050505056fea26469706673582212205cb2acf98a1172713aa6e8749b83432ff5fea73efe14f5bcde3fdf6d9a7167a564736f6c63430008110033",
  "linkReferences": {},
  "deployedLinkReferences": {}
}